S00E000043616E6172792E73726563B8
S11300000EC01EC01EC01CC01BC01AC019C018C020
S113001017C016C015C014C023C012C011C01124CB
S11300201FBECFEDCDBF10E0A0E6B0E0E4EDF0E000
S113003002C005900D92A236B107D9F72DD048C061
S1130040DFCF1F920F920FB60F9211248F9381E08E
S1130050809360008F910F900FBE0F901F901895A2
S11300601F920F920FB60F9211240F900FBE0F9094
S11300701F901895611571058105910561F0DC01EA
S1130080CB01E9EFF0E03197F1F700C000000197F0
S1130090A109B109B1F7089588E087BB8FE288BB55
S11300A08BB780628BBFAC9A789468EC70E080E088
S11300B090E0E0DF809160008823B9F31092600043
S11300C0C39868EC70E080E090E0D4DFC39AEDCF91
S10700D0F894FFCFCE
S10500D4010025
S9030000FC
