S00E000043616E6172792E73726563B8
S11300000EC01EC01EC01CC01BC01AC019C018C020
S113001017C016C015C014C023C012C011C01124CB
S11300201FBECFEDCDBF10E0A0E6B0E0EEE0F1E002
S113003002C005900D92A236B107D9F74CD065C025
S1130040DFCF1F920F920FB60F9211248F9381E08E
S1130050809360008F910F900FBE0F901F901895A2
S11300601F920F920FB60F9211240F900FBE0F9094
S11300701F901895611571058105910561F0DC01EA
S1130080CB01E9EFF0E03197F1F700C000000197F0
S1130090A109B109B1F708950F931F93CF93DF938B
S11300A0181619069CF48C01C0E0D0E0C39868ECE3
S11300B070E080E090E0DEDFC39A68EC70E080E0FE
S11300C090E0D8DF21960C171D0781F7DF91CF91BF
S11300D01F910F91089588E087BB8FE288BB89EE5A
S11300E081BD8BB780628BBFAC9A789468EC70E06A
S11300F080E090E0BFDF809160008823B9F3109224
S1110100600082E090E0C8DFF1CFF894FFCFFA
S105010E0100EA
S9030000FC
