:100000000EC01EC01EC01CC01BC01AC019C018C024
:1000100017C016C015C014C023C012C011C01124CF
:100020001FBECFEDCDBF10E0A0E6B0E0EAEEF0E0FD
:1000300002C005900D92A236B107D9F72DD053C05A
:10004000DFCF1F920F920FB60F9211248F9381E092
:10005000809360008F910F900FBE0F901F901895A6
:100060001F920F920FB60F9211240F900FBE0F9098
:100070001F901895611571058105910561F0DC01EE
:10008000CB01E9EFF0E03197F1F700C000000197F4
:10009000A109B109B1F70895CF93DF931F92CDB7AE
:1000A000DD2788E087BB8FE288BB89EE81BD8BB7F7
:1000B00080628BBFAC9A789468EC70E080E090E04E
:1000C000D9DF809160008823B9F31092600088B373
:1000D00083FB882780F989838981882311F0C3985D
:0A00E000EBCFC39AE9CFF894FFCFED
:0200EA00010013
:00000001FF
